{
  "_format": "hh-sol-artifact-1",
  "contractName": "PrivateRPSFHE",
  "sourceName": "contracts/PrivateRPSFHE.sol",
  "abi": [
    {
      "inputs": [
        {
          "internalType": "address",
          "name": "_admin",
          "type": "address"
        }
      ],
      "stateMutability": "nonpayable",
      "type": "constructor"
    },
    {
      "inputs": [],
      "name": "AlreadySubmitted",
      "type": "error"
    },
    {
      "inputs": [],
      "name": "GameFinished",
      "type": "error"
    },
    {
      "inputs": [],
      "name": "GameFull",
      "type": "error"
    },
    {
      "inputs": [],
      "name": "InvalidWinner",
      "type": "error"
    },
    {
      "inputs": [],
      "name": "NeedBothMoves",
      "type": "error"
    },
    {
      "inputs": [],
      "name": "NotAdmin",
      "type": "error"
    },
    {
      "inputs": [],
      "name": "NotInGame",
      "type": "error"
    },
    {
      "inputs": [],
      "name": "WrongPlayer",
      "type": "error"
    },
    {
      "anonymous": false,
      "inputs": [
        {
          "indexed": true,
          "internalType": "uint256",
          "name": "gameId",
          "type": "uint256"
        },
        {
          "indexed": true,
          "internalType": "address",
          "name": "creator",
          "type": "address"
        }
      ],
      "name": "GameCreated",
      "type": "event"
    },
    {
      "anonymous": false,
      "inputs": [
        {
          "indexed": true,
          "internalType": "uint256",
          "name": "gameId",
          "type": "uint256"
        },
        {
          "indexed": false,
          "internalType": "address",
          "name": "winner",
          "type": "address"
        },
        {
          "indexed": false,
          "internalType": "string",
          "name": "result",
          "type": "string"
        }
      ],
      "name": "GameFinalized",
      "type": "event"
    },
    {
      "anonymous": false,
      "inputs": [
        {
          "indexed": true,
          "internalType": "uint256",
          "name": "gameId",
          "type": "uint256"
        },
        {
          "indexed": true,
          "internalType": "address",
          "name": "player",
          "type": "address"
        }
      ],
      "name": "Joined",
      "type": "event"
    },
    {
      "anonymous": false,
      "inputs": [
        {
          "indexed": true,
          "internalType": "uint256",
          "name": "gameId",
          "type": "uint256"
        },
        {
          "indexed": true,
          "internalType": "address",
          "name": "player",
          "type": "address"
        }
      ],
      "name": "MoveSubmitted",
      "type": "event"
    },
    {
      "anonymous": false,
      "inputs": [
        {
          "indexed": true,
          "internalType": "uint256",
          "name": "gameId",
          "type": "uint256"
        },
        {
          "indexed": false,
          "internalType": "bytes",
          "name": "encMove1",
          "type": "bytes"
        },
        {
          "indexed": false,
          "internalType": "bytes",
          "name": "encMove2",
          "type": "bytes"
        }
      ],
      "name": "NeedsOffchainFinalize",
      "type": "event"
    },
    {
      "inputs": [],
      "name": "admin",
      "outputs": [
        {
          "internalType": "address",
          "name": "",
          "type": "address"
        }
      ],
      "stateMutability": "view",
      "type": "function"
    },
    {
      "inputs": [
        {
          "internalType": "uint256",
          "name": "wagerWei_",
          "type": "uint256"
        }
      ],
      "name": "createGame",
      "outputs": [
        {
          "internalType": "uint256",
          "name": "",
          "type": "uint256"
        }
      ],
      "stateMutability": "nonpayable",
      "type": "function"
    },
    {
      "inputs": [
        {
          "internalType": "uint256",
          "name": "gameId",
          "type": "uint256"
        },
        {
          "internalType": "uint8",
          "name": "winner",
          "type": "uint8"
        }
      ],
      "name": "finalizeResult",
      "outputs": [],
      "stateMutability": "nonpayable",
      "type": "function"
    },
    {
      "inputs": [
        {
          "internalType": "uint256",
          "name": "",
          "type": "uint256"
        }
      ],
      "name": "games",
      "outputs": [
        {
          "internalType": "address",
          "name": "player1",
          "type": "address"
        },
        {
          "internalType": "address",
          "name": "player2",
          "type": "address"
        },
        {
          "internalType": "bytes",
          "name": "encMove1",
          "type": "bytes"
        },
        {
          "internalType": "bytes",
          "name": "encMove2",
          "type": "bytes"
        },
        {
          "internalType": "bool",
          "name": "finished",
          "type": "bool"
        },
        {
          "internalType": "uint256",
          "name": "createdAt",
          "type": "uint256"
        }
      ],
      "stateMutability": "view",
      "type": "function"
    },
    {
      "inputs": [
        {
          "internalType": "uint256",
          "name": "gameId",
          "type": "uint256"
        }
      ],
      "name": "getEncryptedMoves",
      "outputs": [
        {
          "internalType": "bytes",
          "name": "",
          "type": "bytes"
        },
        {
          "internalType": "bytes",
          "name": "",
          "type": "bytes"
        }
      ],
      "stateMutability": "view",
      "type": "function"
    },
    {
      "inputs": [
        {
          "internalType": "uint256",
          "name": "gameId",
          "type": "uint256"
        }
      ],
      "name": "joinGame",
      "outputs": [],
      "stateMutability": "nonpayable",
      "type": "function"
    },
    {
      "inputs": [],
      "name": "nextGameId",
      "outputs": [
        {
          "internalType": "uint256",
          "name": "",
          "type": "uint256"
        }
      ],
      "stateMutability": "view",
      "type": "function"
    },
    {
      "inputs": [
        {
          "internalType": "uint256",
          "name": "gameId",
          "type": "uint256"
        },
        {
          "internalType": "bytes",
          "name": "encMove",
          "type": "bytes"
        }
      ],
      "name": "submitMove",
      "outputs": [],
      "stateMutability": "nonpayable",
      "type": "function"
    }
  ],
  "bytecode": "0x608060405234801561001057600080fd5b50604051610d98380380610d9883398101604081905261002f916100a2565b6001600160a01b03811661007a5760405162461bcd60e51b815260206004820152600e60248201526d18591b5a5b881c995c5d5a5c995960921b604482015260640160405180910390fd5b600180546001600160a01b0319166001600160a01b03929092169190911781556000556100d2565b6000602082840312156100b457600080fd5b81516001600160a01b03811681146100cb57600080fd5b9392505050565b610cb7806100e16000396000f3fe608060405234801561001057600080fd5b50600436106100885760003560e01c8063a2b846f91161005b578063a2b846f914610104578063b135bbb014610125578063efaa55a01461012e578063f851a4401461014157600080fd5b8063117a5b901461008d5780631e9d558c146100bb57806348e837b9146100d057806354d04de2146100f1575b600080fd5b6100a061009b366004610899565b61016c565b6040516100b2969594939291906108f8565b60405180910390f35b6100ce6100c936600461094c565b6102c4565b005b6100e36100de366004610899565b6104af565b6040519081526020016100b2565b6100ce6100ff3660046109c8565b610520565b610117610112366004610899565b610681565b6040516100b29291906109fe565b6100e360005481565b6100ce61013c366004610899565b6107c5565b600154610154906001600160a01b031681565b6040516001600160a01b0390911681526020016100b2565b60026020819052600091825260409091208054600182015492820180546001600160a01b039283169490921692916101a390610a2c565b80601f01602080910402602001604051908101604052809291908181526020018280546101cf90610a2c565b801561021c5780601f106101f15761010080835404028352916020019161021c565b820191906000526020600020905b8154815290600101906020018083116101ff57829003601f168201915b50505050509080600301805461023190610a2c565b80601f016020809104026020016040519081016040528092919081815260200182805461025d90610a2c565b80156102aa5780601f1061027f576101008083540402835291602001916102aa565b820191906000526020600020905b81548152906001019060200180831161028d57829003601f168201915b505050506004830154600590930154919260ff1691905086565b6000838152600260205260409020600481015460ff16156102f857604051635a9be5e560e11b815260040160405180910390fd5b80546001600160a01b03166103205760405163218286cb60e11b815260040160405180910390fd5b80546001600160a01b03163314801590610347575060018101546001600160a01b03163314155b156103655760405163218286cb60e11b815260040160405180910390fd5b80546001600160a01b031633036103ba5780600201805461038590610a2c565b1590506103a557604051639fbfc58960e01b815260040160405180910390fd5b600281016103b4838583610acb565b506103fa565b8060030180546103c990610a2c565b1590506103e957604051639fbfc58960e01b815260040160405180910390fd5b600381016103f8838583610acb565b505b604051339085907fd941bcb1701e10b71c87743ac340b0217253c49b9c2d1e23dd5eb7bea4270ce490600090a380600201805461043690610a2c565b1580159150610454575080600301805461044f90610a2c565b151590505b156104a957837f53ca5e5e64d3fe4abedf27d31c91e7695c32463731ebaa77cab8984d8ee332a88260020183600301604051610491929190610c09565b60405180910390a260048101805460ff191660011790555b50505050565b60008054819081806104c083610c2e565b9091555060008181526002602052604080822080546001600160a01b031916339081178255426005830155915193945092909184917fc3e0f84839dc888c892a013d10c8f9d6dc05a21a879d0ce468ca558013e9121c9190a35092915050565b6001546001600160a01b0316331461054b57604051637bfa4b9f60e01b815260040160405180910390fd5b6000828152600260205260409020600481015460ff1661057e5760405163218286cb60e11b815260040160405180910390fd5b600060608360ff166000036105b25750506040805180820190915260048152634472617760e01b6020820152600090610640565b8360ff166001036105eb5750508054604080518082019091526002815261503160f01b60208201526001600160a01b0390911690610640565b8360ff166002036106275750506001810154604080518082019091526002815261281960f11b60208201526001600160a01b0390911690610640565b6040516393a5f3c760e01b815260040160405180910390fd5b847f153236db7270c80299803166b3b859b5cacc9d809b80f62b7add754db970c8c88383604051610672929190610c55565b60405180910390a25050505050565b606080600060026000858152602001908152602001600020905080600201816003018180546106af90610a2c565b80601f01602080910402602001604051908101604052809291908181526020018280546106db90610a2c565b80156107285780601f106106fd57610100808354040283529160200191610728565b820191906000526020600020905b81548152906001019060200180831161070b57829003601f168201915b5050505050915080805461073b90610a2c565b80601f016020809104026020016040519081016040528092919081815260200182805461076790610a2c565b80156107b45780601f10610789576101008083540402835291602001916107b4565b820191906000526020600020905b81548152906001019060200180831161079757829003601f168201915b505050505090509250925050915091565b600081815260026020526040902080546001600160a01b03166107fb5760405163218286cb60e11b815260040160405180910390fd5b60018101546001600160a01b0316156108275760405163b3ed896d60e01b815260040160405180910390fd5b8054336001600160a01b03909116036108535760405163cc3b34d560e01b815260040160405180910390fd5b6001810180546001600160a01b0319163390811790915560405183907fc0081eeafa0d002abcd7d58d84b6e688d1526b9c3d915a282212ba08c49a17a790600090a35050565b6000602082840312156108ab57600080fd5b5035919050565b6000815180845260005b818110156108d8576020818501810151868301820152016108bc565b506000602082860101526020601f19601f83011685010191505092915050565b6001600160a01b0387811682528616602082015260c060408201819052600090610924908301876108b2565b828103606084015261093681876108b2565b9415156080840152505060a00152949350505050565b60008060006040848603121561096157600080fd5b83359250602084013567ffffffffffffffff8082111561098057600080fd5b818601915086601f83011261099457600080fd5b8135818111156109a357600080fd5b8760208285010111156109b557600080fd5b6020830194508093505050509250925092565b600080604083850312156109db57600080fd5b82359150602083013560ff811681146109f357600080fd5b809150509250929050565b604081526000610a1160408301856108b2565b8281036020840152610a2381856108b2565b95945050505050565b600181811c90821680610a4057607f821691505b602082108103610a6057634e487b7160e01b600052602260045260246000fd5b50919050565b634e487b7160e01b600052604160045260246000fd5b601f821115610ac657600081815260208120601f850160051c81016020861015610aa35750805b601f850160051c820191505b81811015610ac257828155600101610aaf565b5050505b505050565b67ffffffffffffffff831115610ae357610ae3610a66565b610af783610af18354610a2c565b83610a7c565b6000601f841160018114610b2b5760008515610b135750838201355b600019600387901b1c1916600186901b178355610b85565b600083815260209020601f19861690835b82811015610b5c5786850135825560209485019460019092019101610b3c565b5086821015610b795760001960f88860031b161c19848701351681555b505060018560011b0183555b5050505050565b60008154610b9981610a2c565b808552602060018381168015610bb65760018114610bd057610bfe565b60ff1985168884015283151560051b880183019550610bfe565b866000528260002060005b85811015610bf65781548a8201860152908301908401610bdb565b890184019650505b505050505092915050565b604081526000610c1c6040830185610b8c565b8281036020840152610a238185610b8c565b600060018201610c4e57634e487b7160e01b600052601160045260246000fd5b5060010190565b6001600160a01b0383168152604060208201819052600090610c79908301846108b2565b94935050505056fea2646970667358221220590c6d72ff139de7a7fd82ed5d889d5403378f3a8ad9863bee04263ee480143064736f6c63430008130033",
  "linkReferences": {},
  "deployedLinkReferences": {}
}